{
  "_format": "hh-sol-artifact-1",
  "contractName": "RarityMap",
  "sourceName": "contracts/RarityMap.sol",
  "abi": [
    {
      "anonymous": false,
      "inputs": [
        {
          "indexed": false,
          "internalType": "uint256",
          "name": "summoner",
          "type": "uint256"
        },
        {
          "indexed": false,
          "internalType": "int256",
          "name": "x",
          "type": "int256"
        },
        {
          "indexed": false,
          "internalType": "int256",
          "name": "y",
          "type": "int256"
        }
      ],
      "name": "Moved",
      "type": "event"
    },
    {
      "anonymous": false,
      "inputs": [
        {
          "indexed": false,
          "internalType": "uint256",
          "name": "summoner",
          "type": "uint256"
        }
      ],
      "name": "Spawned",
      "type": "event"
    },
    {
      "inputs": [
        {
          "internalType": "uint256",
          "name": "",
          "type": "uint256"
        }
      ],
      "name": "adventurers_log",
      "outputs": [
        {
          "internalType": "uint256",
          "name": "",
          "type": "uint256"
        }
      ],
      "stateMutability": "view",
      "type": "function"
    },
    {
      "inputs": [
        {
          "internalType": "uint256",
          "name": "",
          "type": "uint256"
        }
      ],
      "name": "hasSpawned",
      "outputs": [
        {
          "internalType": "bool",
          "name": "",
          "type": "bool"
        }
      ],
      "stateMutability": "view",
      "type": "function"
    },
    {
      "inputs": [
        {
          "internalType": "uint256",
          "name": "_summoner",
          "type": "uint256"
        },
        {
          "internalType": "int256",
          "name": "_x",
          "type": "int256"
        },
        {
          "internalType": "int256",
          "name": "_y",
          "type": "int256"
        }
      ],
      "name": "move",
      "outputs": [],
      "stateMutability": "nonpayable",
      "type": "function"
    },
    {
      "inputs": [
        {
          "internalType": "uint256",
          "name": "_summoner",
          "type": "uint256"
        }
      ],
      "name": "spawn",
      "outputs": [],
      "stateMutability": "nonpayable",
      "type": "function"
    },
    {
      "inputs": [
        {
          "internalType": "uint256",
          "name": "",
          "type": "uint256"
        }
      ],
      "name": "summonerCoordinates",
      "outputs": [
        {
          "internalType": "int256",
          "name": "x",
          "type": "int256"
        },
        {
          "internalType": "int256",
          "name": "y",
          "type": "int256"
        }
      ],
      "stateMutability": "view",
      "type": "function"
    }
  ],
  "bytecode": "0x608060405234801561001057600080fd5b50611309806100206000396000f3fe608060405234801561001057600080fd5b50600436106100575760003560e01c80636e6ef6cf1461005c5780637ec0c82d14610078578063e7a789f814610094578063eed25028146100c5578063f7415be6146100f5575b600080fd5b61007660048036038101906100719190610a8a565b610125565b005b610092600480360381019061008d9190610a61565b6103cb565b005b6100ae60048036038101906100a99190610a61565b6106ef565b6040516100bc929190610c3b565b60405180910390f35b6100df60048036038101906100da9190610a61565b610713565b6040516100ec9190610d34565b60405180910390f35b61010f600480360381019061010a9190610a61565b61072b565b60405161011c9190610c20565b60405180910390f35b61012e8361074b565b61016d576040517f08c379a000000000000000000000000000000000000000000000000000000000815260040161016490610cb4565b60405180910390fd5b600160008481526020019081526020016000205442116101c2576040517f08c379a00000000000000000000000000000000000000000000000000000000081526004016101b990610c94565b60405180910390fd5b6002600084815260200190815260200160002060009054906101000a900460ff16610222576040517f08c379a000000000000000000000000000000000000000000000000000000000815260040161021990610cf4565b60405180910390fd5b600e60647fffffffffffffffffffffffffffffffffffffffffffffffffffffffffffffffff6102519190610df8565b61025b9190610df8565b610284836000808781526020019081526020016000206000015461027f9190610f40565b6108f1565b131580156102f25750600e60647fffffffffffffffffffffffffffffffffffffffffffffffffffffffffffffffff6102bc9190610df8565b6102c69190610df8565b6102ef82600080878152602001908152602001600020600101546102ea9190610f40565b6108f1565b13155b610331576040517f08c379a000000000000000000000000000000000000000000000000000000000815260040161032890610cd4565b60405180910390fd5b62015180426103409190610da2565b6001600085815260200190815260200160002081905550816000808581526020019081526020016000206000018190555080600080858152602001908152602001600020600101819055507f136b3e98875e26015e8dea29e820fa0516c1425fcf9f4267f2cc861eb2c49c808383836040516103be93929190610d4f565b60405180910390a1505050565b6103d48161074b565b610413576040517f08c379a000000000000000000000000000000000000000000000000000000000815260040161040a90610cb4565b60405180910390fd5b6002600082815260200190815260200160002060009054906101000a900460ff1615610474576040517f08c379a000000000000000000000000000000000000000000000000000000000815260040161046b90610d14565b60405180910390fd5b6000816040516020016104879190610c05565b6040516020818303038152906040528051906020012060001c90506000816040516020016104b59190610c05565b6040516020818303038152906040528051906020012060001c90506105476040518060400160405280600781526020017f2061626320257300000000000000000000000000000000000000000000000000815250600e60647fffffffffffffffffffffffffffffffffffffffffffffffffffffffffffffffff6105389190610df8565b6105429190610df8565b610934565b600260647fffffffffffffffffffffffffffffffffffffffffffffffffffffffffffffffff6105769190610df8565b6105809190610df8565b60647fffffffffffffffffffffffffffffffffffffffffffffffffffffffffffffffff6105ad9190610df8565b836105b89190611063565b6105c29190610f40565b60008085815260200190815260200160002060000181905550600260647fffffffffffffffffffffffffffffffffffffffffffffffffffffffffffffffff61060a9190610df8565b6106149190610df8565b60647fffffffffffffffffffffffffffffffffffffffffffffffffffffffffffffffff6106419190610df8565b8261064c9190611063565b6106569190610f40565b6000808581526020019081526020016000206001018190555042600160008581526020019081526020016000208190555060016002600085815260200190815260200160002060006101000a81548160ff0219169083151502179055507f1799001242e695599362748034bf4c7e80f1ddf92e493995f4632817459bd014836040516106e29190610d34565b60405180910390a1505050565b60006020528060005260406000206000915090508060000154908060010154905082565b60016020528060005260406000206000915090505481565b60026020528060005260406000206000915054906101000a900460ff1681565b60003373ffffffffffffffffffffffffffffffffffffffff1673ce761d788df608bd21bdd59d6f4b54b2e27f25bb73ffffffffffffffffffffffffffffffffffffffff16636352211e846040518263ffffffff1660e01b81526004016107b19190610d34565b60206040518083038186803b1580156107c957600080fd5b505afa1580156107dd573d6000803e3d6000fd5b505050506040513d601f19601f820116820180604052508101906108019190610a38565b73ffffffffffffffffffffffffffffffffffffffff1614806108ea57503373ffffffffffffffffffffffffffffffffffffffff1673ce761d788df608bd21bdd59d6f4b54b2e27f25bb73ffffffffffffffffffffffffffffffffffffffff1663081812fc846040518263ffffffff1660e01b81526004016108829190610d34565b60206040518083038186803b15801561089a57600080fd5b505afa1580156108ae573d6000803e3d6000fd5b505050506040513d601f19601f820116820180604052508101906108d29190610a38565b73ffffffffffffffffffffffffffffffffffffffff16145b9050919050565b6000808212610900578161092d565b7fffffffffffffffffffffffffffffffffffffffffffffffffffffffffffffffff8261092c9190610e29565b5b9050919050565b6109cc828260405160240161094a929190610c64565b6040516020818303038152906040527f9710a9d0000000000000000000000000000000000000000000000000000000007bffffffffffffffffffffffffffffffffffffffffffffffffffffffff19166020820180517bffffffffffffffffffffffffffffffffffffffffffffffffffffffff83818316178352505050506109d0565b5050565b60008151905060006a636f6e736f6c652e6c6f679050602083016000808483855afa5050505050565b600081519050610a088161128e565b92915050565b600081359050610a1d816112a5565b92915050565b600081359050610a32816112bc565b92915050565b600060208284031215610a4a57600080fd5b6000610a58848285016109f9565b91505092915050565b600060208284031215610a7357600080fd5b6000610a8184828501610a23565b91505092915050565b600080600060608486031215610a9f57600080fd5b6000610aad86828701610a23565b9350506020610abe86828701610a0e565b9250506040610acf86828701610a0e565b9150509250925092565b610ae281610fe6565b82525050565b610af181610ff2565b82525050565b6000610b0282610d86565b610b0c8185610d91565b9350610b1c818560208601611026565b610b25816110f2565b840191505092915050565b6000610b3d603383610d91565b9150610b4882611103565b604082019050919050565b6000610b60603583610d91565b9150610b6b82611152565b604082019050919050565b6000610b83602683610d91565b9150610b8e826111a1565b604082019050919050565b6000610ba6602783610d91565b9150610bb1826111f0565b604082019050919050565b6000610bc9602e83610d91565b9150610bd48261123f565b604082019050919050565b610be88161101c565b82525050565b610bff610bfa8261101c565b611059565b82525050565b6000610c118284610bee565b60208201915081905092915050565b6000602082019050610c356000830184610ad9565b92915050565b6000604082019050610c506000830185610ae8565b610c5d6020830184610ae8565b9392505050565b60006040820190508181036000830152610c7e8185610af7565b9050610c8d6020830184610bdf565b9392505050565b60006020820190508181036000830152610cad81610b30565b9050919050565b60006020820190508181036000830152610ccd81610b53565b9050919050565b60006020820190508181036000830152610ced81610b76565b9050919050565b60006020820190508181036000830152610d0d81610b99565b9050919050565b60006020820190508181036000830152610d2d81610bbc565b9050919050565b6000602082019050610d496000830184610bdf565b92915050565b6000606082019050610d646000830186610bdf565b610d716020830185610ae8565b610d7e6040830184610ae8565b949350505050565b600081519050919050565b600082825260208201905092915050565b6000610dad8261101c565b9150610db88361101c565b9250827fffffffffffffffffffffffffffffffffffffffffffffffffffffffffffffffff03821115610ded57610dec611094565b5b828201905092915050565b6000610e038261101c565b9150610e0e8361101c565b925082610e1e57610e1d6110c3565b5b828204905092915050565b6000610e3482610ff2565b9150610e3f83610ff2565b9250827f7fffffffffffffffffffffffffffffffffffffffffffffffffffffffffffffff0482116000841360008413161615610e7e57610e7d611094565b5b817f80000000000000000000000000000000000000000000000000000000000000000583126000841260008413161615610ebb57610eba611094565b5b827f80000000000000000000000000000000000000000000000000000000000000000582126000841360008412161615610ef857610ef7611094565b5b827f7fffffffffffffffffffffffffffffffffffffffffffffffffffffffffffffff0582126000841260008412161615610f3557610f34611094565b5b828202905092915050565b6000610f4b82610ff2565b9150610f5683610ff2565b9250827f800000000000000000000000000000000000000000000000000000000000000001821260008412151615610f9157610f90611094565b5b827f7fffffffffffffffffffffffffffffffffffffffffffffffffffffffffffffff018213600084121615610fc957610fc8611094565b5b828203905092915050565b6000610fdf82610ffc565b9050919050565b60008115159050919050565b6000819050919050565b600073ffffffffffffffffffffffffffffffffffffffff82169050919050565b6000819050919050565b60005b83811015611044578082015181840152602081019050611029565b83811115611053576000848401525b50505050565b6000819050919050565b600061106e8261101c565b91506110798361101c565b925082611089576110886110c3565b5b828206905092915050565b7f4e487b7100000000000000000000000000000000000000000000000000000000600052601160045260246000fd5b7f4e487b7100000000000000000000000000000000000000000000000000000000600052601260045260246000fd5b6000601f19601f8301169050919050565b7f596f75722073756d6d6f6e6572206e6565647320746f2072657374206120646160008201527f79206265747765656e2065616368206d6f766500000000000000000000000000602082015250565b7f596f7520617265206e6f7420746865206f776e6572202f20617070726f76656460008201527f20746f2075736520746869732073756d6d6f6e65720000000000000000000000602082015250565b7f596f752063616e277420676f20736f20666172206177617920696e206f6e652060008201527f6d6f766520210000000000000000000000000000000000000000000000000000602082015250565b7f596f75206d75737420666973727420737061776e206f6e2074686520776f726c60008201527f64206d6170202100000000000000000000000000000000000000000000000000602082015250565b7f546869732073756d6d6f6e65722068617320616c7265616479206a6f696e656460008201527f2074686520776f726c64206d6170000000000000000000000000000000000000602082015250565b61129781610fd4565b81146112a257600080fd5b50565b6112ae81610ff2565b81146112b957600080fd5b50565b6112c58161101c565b81146112d057600080fd5b5056fea2646970667358221220b4c302187b3d591e4864cacd7234fd235384dab356a98947ccedc0084b49b6a664736f6c63430008020033",
  "linkReferences": {},
  "deployedLinkReferences": {}
}